:100000000C94AC060C94F3060C94F3060C94F306D3
:100010000C94F3060C94F3060C94F3060C94F3067C
:100020000C94F3060C94F3060C94D3290C94A52A93
:100030000C941B240C94F3060C94F3060C94F30616
:100040000C94F3060C94F3060C94F3060C94F3064C
:100050000C94F3060C9474240C94F3060C94F3069D
:100060000C94F3060C94F3060C94F3060C94F3062C
:100070000C94F3060C94F3060C94F3060C94F3061C
:100080000C94F3060C94F3060C94F3060C94F3060C
:100090000C94F3060C94F3060C94F3060C94F306FC
:1000A0000C94F3060C94F3060C94F306FB19FB195D
:1000B0002D1A2D1A7A1A981AB91BB91BA31A381BB4
:1000C000491B491BA91BB91BB91BB21B591C591C45
:1000D0006B1C6B1C621C6B1C6B1C6B1C591C591C15
:1000E000671C6B1C6B1C671C122B392B312C392B9A
:1000F000312C852BA82B312CFF2B0E2C2900140022
:100100001A000800150017001C0018000C0012004F
:1001100013002A002B0004001600070009000A0043
:100120000B000D000E000F0033003400E1001D0035
:100130001B000600190005001100100036003700F2
:1001400038002800E000E2004C05E30003512C00D9
:100150002C0002515000510052004F0029001400A1
:10016000070015001A0005000D0009001800130013
:1001700001002A002B00040016000B0017000A00E3
:100180001C001100080012000C003400E1001D00EA
:100190001B001000060019000E000F00360037008B
:1001A00038002800E000E2004C05E30003512C0079
:1001B0002C0002515000510052004F0035021E0227
:1001C0001F0220022102220223022402250226020B
:1001D00027022A004C003A003B003C003D003E0054
:1001E0003F002D022E022F0230023102010040009A
:1001F00041004200430044004500320264024A00CC
:100200004D000100005C01000100010004510100EB
:1002100001000100AB00AA00A900AE0035001E00DD
:100220001F002000210022002300240025002600BA
:1002300027002A004C003A003B003C003D003E00F5
:100240003F002D002E002F00300031000100400043
:1002500041004200430044004500320064004E006B
:100260004B0001000100010001000100010001003C
:1002700001000451AB00AA00A900AE000100005C1F
:10028000015C0100010001000100010001000052B9
:1002900001524C00010001000100010001000100B9
:1002A0000100010001000100010001000100010046
:1002B0000100010001000100010001000100010036
:1002C0000100010001000100010001000100010026
:1002D00001000100010001000100010044454255F8
:1002E000473A2064697361626C65642E0A00444574
:1002F0004255473A20656E61626C65642E0A000AB9
:10030000002530313662003A200025303258000A8C
:10031000722F632030313233343536373839414229
:10032000434445460A006D6B5F776865656C5F7492
:10033000696D655F746F5F6D6178203D2025640A8B
:10034000006D6B5F776865656C5F6D61785F73707A
:10035000656564203D2025640A006D6B5F74696DDE
:10036000655F746F5F6D6178203D2025640A006DC4
:100370006B5F6D61785F7370656564203D202564F7
:100380000A006D6B5F696E74657276616C203D204A
:1003900025640A006D6B5F64656C6179203D2025E2
:1003A000640A006D6B5F776865656C5F74696D6585
:1003B0005F746F5F6D6178203D2025640A006D6B6E
:1003C0005F776865656C5F6D61785F7370656564A4
:1003D000203D2025640A006D6B5F74696D655F7454
:1003E0006F5F6D6178203D2025640A006D6B5F6D45
:1003F00061785F7370656564203D2025640A006D37
:100400006B5F696E74657276616C203D2025640AAD
:10041000006D6B5F64656C6179203D2025640A0086
:100420000A00257500363A20776865656C5F746947
:100430006D655F746F5F6D61783A20000A00257505
:1004400000353A20776865656C5F6D61785F737021
:100450006565643A20000A00257500343A20746905
:100460006D655F746F5F6D61783A20000A002575D5
:1004700000333A206D61785F73706565643A2000DF
:100480000A00257500323A20696E74657276616CD7
:10049000286D73293A20000A00257500313A20643E
:1004A000656C6179282A31306D73293A20000A0978
:1004B0002D2056616C756573202D0A004D3E004D50
:1004C00025643E20003F0073657420646566617595
:1004D0006C740A00433E200077686572652064658D
:1004E0006C74613A20637572736F723D25642C20C1
:1004F000776865656C3D25640A536565206874748A
:10050000703A2F2F656E2E77696B6970656469612B
:100510002E6F72672F77696B692F4D6F7573655FEB
:100520006B6579730A000A092D204D6F7573656B31
:100530006579202D0A4553432F713A097175697405
:100540000A313A0964656C6179282A31306D732962
:100550000A323A09696E74657276616C286D732986
:100560000A333A096D61785F73706565640A343ADD
:100570000974696D655F746F5F6D61780A353A095A
:10058000776865656C5F6D61785F73706565640A37
:10059000363A09776865656C5F74696D655F746F7D
:1005A0005F6D61780A0A703A097072696E7420761C
:1005B000616C7565730A643A0973657420646566D5
:1005C00061756C74730A75703A092B310A646F7720
:1005D0006E3A092D310A706775703A092B31300A6D
:1005E0007067646F776E3A092D31300A0A7370654F
:1005F0006564203D2064656C7461202A206D6178FB
:100600005F7370656564202A202872657065617467
:10061000202F2074696D655F746F5F6D6178290AA2
:10062000003F004D3E2000433E20004C25640A0060
:1006300074696D65725F72656164333228293A208E
:100640002530346C580A006B6579626F6172645FA3
:1006500069646C653A2025580A006B6579626F61A0
:1006600072645F70726F746F636F6C3A2025580A02
:1006700000686F73745F6B6579626F6172645F6C41
:1006800065647328293A2025580A000A092D205349
:100690007461747573202D0A004743433A20352E48
:1006A000342E30204156522D4C4942433A20322EAE
:1006B000302E30204156525F415243483A206176F5
:1006C00072350A004F5054494F4E533A204C55460C
:1006D00041204D4F5553454B4559204558545241A3
:1006E0004B455920434F4E534F4C4520434F4D4DA2
:1006F000414E4420343039360A004255494C443A80
:100700002020284D61722020352032303231290AD4
:10071000005649443A2030783432373328426F61EA
:100720007264736F7572636529205049443A2030B2
:100730007830343132283478313229205645523AD3
:10074000203078303030300A000A092D205665728A
:1007500073696F6E202D0A000A092D20436F6E7396
:100760006F6C65202D0A4553432F713A09717569E5
:10077000740A6D3A096D6F7573656B65790A000AC5
:10078000092D204D61676963202D0A443A094465AB
:10079000627567204D65737361676520546F676785
:1007A0006C650A583A094D61747269782044656233
:1007B0007567204D6F646520546F67676C65202DE9
:1007C0002053686F77206B657970726573736573FA
:1007D00020696E206D617472697820677269640A9D
:1007E0004B3A094B6579626F6172642044656275AA
:1007F0006720546F67676C65202D2053686F7720E2
:100800006B65797072657373207265706F72740AAC
:100810004D3A094465627567204D6F7573652054C4
:100820006F67676C650A563A0956657273696F6E31
:100830000A533A095374617475730A433A09416360
:1008400074697661746520436F6E736F6C65204DBB
:100850006F64650A46312D4631303A095377697421
:10086000636820746F204C6179657220302D3920C7
:1008700028463130203D204C30290A302D393A09A4
:1008800053776974636820746F204C6179657220B6
:10089000302D390A47524156453A095377697463F6
:1008A0006820746F204C6179657220302028616C5B
:1008B0007465726E617465290A423A094A756D70F1
:1008C00020746F20426F6F746C6F616465720A45AB
:1008D00053433A094A756D7020746F20426F6F74EC
:1008E0006C6F616465722028616C7465726E6174EE
:1008F00065290A453A095072696E7420454550527F
:100900004F4D2053657474696E67730A42535041AA
:1009100043453A09436C65617220454550524F4D3D
:100920000A000A002575002E6E6B726F3A20000ACD
:10093000002575002E737761705F6261636B736C65
:100940006173685F6261636B73706163653A200015
:100950000A002575002E737761705F677261766596
:100960005F6573633A20000A002575002E6E6F5F85
:100970006775693A20000A002575002E737761704B
:100980005F72616C745F726775693A20000A0025B6
:1009900075002E737761705F6C616C745F6C677546
:1009A000693A20000A002575002E737761705F7226
:1009B00063746C5F726775693A20000A00257500E0
:1009C0002E737761705F6C63746C5F6C6775693AE6
:1009D00020000A002575002E636170736C6F636BD5
:1009E0005F746F5F636F6E74726F6C3A20000A0001
:1009F0002575002E737761705F636F6E74726F6C14
:100A00005F636170736C6F636B3A20000A0025307E
:100A10003258006B65796D61705F636F6E666967F0
:100A20002E7261773A20000A002575002E6D6F75D1
:100A300073653A20000A002575002E6B6579626F98
:100A40006172643A20000A002575002E6D6174728F
:100A500069783A20000A002575002E656E61626C87
:100A6000653A20000A0025303258006465627567D7
:100A70005F636F6E6669672E7261773A20000A00C5
:100A800025750064656661756C745F6C617965726B
:100A90003A20003F000A6D6F7573653A206F6666F5
:100AA0000A000A6D6F7573653A206F6E0A000A6B53
:100AB0006579626F6172643A206F66660A000A6B3C
:100AC0006579626F6172643A206F6E0A000A6D6127
:100AD000747269783A206F66660A000A6D617472F2
:100AE00069783A206F6E0A000A64656275673A2079
:100AF0006F66660A000A64656275673A206F6E0A5F
:100B0000000A0A4A756D70696E6720746F20626F03
:100B10006F746C6F616465722E2E2E2000433E2030
:100B200000436C656172696E6720454550524F4DB8
:100B30000A006565636F6E6669673A0A00290A00F4
:100B40002575002F002575005D2800256400200014
:100B5000256400200025640020002564007C002519
:100B6000303258006D6F7573656B6579205B627408
:100B70006E7C782079207620685D287265702F6100
:100B8000636C293A205B000A002530325820006B44
:100B90006579626F6172645F7265706F72743A201A
:100BA000000A0025303258006B6579626F6172640B
:100BB0005F7365745F6C65643A20005B735D004B26
:100BC0006579626F6172642073746172742E0A00B9
:100BD0005B575D005B535D005B525D005B445D00F5
:100BE0005B435D000A0334007800310032000000EE
:100BF000180342006F0061007200640073006F0010
:100C00007500720063006500000004030904090216
:100C10005B00030100A0FA090400000103010100C8
:100C20000921110100012240000705810308000A83
:100C30000904010001030000000921110100012243
:100C40007B000705820320000A090402000203005A
:100C50000000092111010001222200070583032061
:100C6000000107050303200001120110010000002C
:100C700008734212040000010200010631FF0974EA
:100C8000A1010975150026FF00952075088102094C
:100C900076150026FF00952075089102C005010910
:100CA00002A10185020901A1000509190129081500
:100CB00000250195087501810205010930093115EA
:100CC00081257F95027508810609381581257F9554
:100CD0000175088106050C0A38021581257F9501EA
:100CE00075088106C0C005010980A10185031901AD
:100CF0002AB700150126B700950175108100C005BF
:100D00000C0901A101850419012AA002150126A0E0
:100D100002950175108100C005010906A1010507B2
:100D200019E029E715002501950875018102950153
:100D3000750881010507190029FF150026FF009598
:100D400006750881000508190129059505750191A9
:100D500002950175039101C011241FBECFEFDAE0A7
:100D6000DEBFCDBF04B603FE27C080916D02909117
:100D70006E02A0916F02B09170028730904BA74035
:100D8000B04BD1F410926D0210926E0210926F026D
:100D90001092700214BE84B7877F84BF0FB6F89498
:100DA000A895809160008861809360001092600037
:100DB0000FBEE0E0F8E3099511E0A0E0B1E0E4EC5B
:100DC000F9E502C005900D92A03AB107D9F722E0EB
:100DD000A0EAB1E001C01D92AD36B207E1F70E9472
:100DE00006270C94E02C0C940000FF93EF93E09105
:100DF000A001F091A101309709F00995EF91FF91C1
:100E00000895FC018591803011F0EFDFFBCF08954C
:100E1000FF27E0E230E247FF0CC0419597FF09C091
:100E2000EDE26095709580959095611D711D811D15
:100E3000911D27FF02C0219530E350E2AA27660FDB
:100E4000771F881F991FAA1FA41710F0A41B639572
:100E50005A95A9F7AA3008F0A95FA05DAF93F39562
:100E6000611571058105910541F7ED3211F4EF939C
:100E7000F395F21718F43F93F395FBCF8F91B5DFFD
:100E8000FA95E1F70895E991F9918591803021F083
:100E9000853219F0AADFF9CF089520E0E894559142
:100EA0005532C1F3503311F4689455915A3348F4D4
:100EB000505390F3220F022E220F220F200D250FE8
:100EC000F4CF0EF4219589919991533619F3533744
:100ED00029F1533559F1BC0188279927E8945C36EC
:100EE00021F48991999168945591543639F446EFDB
:100EF0007EF077FF0DC08FEF9FEF0AC055374AE0B5
:100F000039F0583540E121F0523642E009F00895B9
:100F1000FF93EF937DDFEF91FF91B7CFFF93EF93B7
:100F2000FC0181918030B9F360DFFBCFFF93EF9339
:100F300068DFF1CFDF93CF93CDB7DEB72596A3DF80
:100F4000CF91DF91089581E0089581E008950C9498
:100F5000A50708950C94A9071F93CF93DF9300D0A2
:100F600000D01F92CDB7DEB749835A836B8330918F
:100F7000CF0189819A81311114C0662359F022234F
:100F800049F00E949221182F682F89819A810E942E
:100F90003B2103C00E946621182F69817A81812F2D
:100FA00004C00E94922169817A810F900F900F9066
:100FB0000F900F90DF91CF911F910C94A008FC012E
:100FC000262F408151816281738184810C94AC070A
:100FD000CF93DF93EC0160E00E94DF07BE01DF9159
:100FE000CF910C94AA070E94B2240E94CA228111B8
:100FF00002C00E9471230C94090B0C94050B0895F8
:101000000E94471C0E94FF072FEF84E39CE02150C1
:1010100080409040E1F700C000000C949A240F93A8
:101020001F93CF93DF93EC0161E00E94DF078C01F7
:10103000BE010E94A707882309F442C0BE01C8016F
:101040000E94E8148823E1F1BE01C8010E943A150C
:101050008823B1F1BE01C8010E946516882381F181
:101060008A81882331F101308CE5180751F00F3D5A
:101070008CE51807D9F001151C45D9F40E94000829
:101080001FC080913B02C82FC095C170C0FB80F982
:1010900080933B02CC2329F08EEE92E00E94010760
:1010A0000FC08CED92E00E9401070BC00E947123DB
:1010B00007C0CE01DF91CF911F910F910C94A30730
:1010C000C0E08C2FDF91CF911F910F9108958295F1
:1010D000982F937344E0949F900111248C7C869503
:1010E0008695282B822F8575880F2A7A2695822B44
:1010F0000895CF93DF93D92F0E946708C82F8D2FB3
:101100000E9467082C2F30E0322F2227A901482B9C
:10111000CA01DF91CF91089508950C948C0881E065
:1011200008950C948F08CF93C82F0E948D088C2FA0
:101130000E949108CF91089580E090E0089508956D
:1011400020E3829FC0011124FC012CE0729FE00D7E
:10115000F11D1124E60FF11DEE0FFF1FE450FF4FAC
:10116000859194910895880F991FFC01E150FD4FDE
:10117000859194910895CF93DF930E94A0080E94D7
:10118000D309EC018115904508F041C0C11580E4F8
:10119000D80708F0D1C0C83ED10510F5C03ED10532
:1011A00008F0FDC0C83AD10578F4C53AD10508F079
:1011B000A2C0C130D10509F4F2C008F4EEC0C430B9
:1011C000D10508F0ECC0E9C0CF3BD10508F49BC0C5
:1011D000C03CD10508F4E1C0CE01805C91099EC0FD
:1011E000C11590E2D90758F4C11521E0D20708F0E3
:1011F000D6C0CD3ED10508F4D0C0D065D0C0C11551
:1012000080E3D80708F08EC0CE019F7087C0C1155B
:1012100095E5D90708F043C0C11524E5D20708F0C9
:10122000A2C0C11582E5D80708F5C11591E5D90717
:1012300008F085C0CE0174E0969587957A95E1F720
:1012400083709C2F937021E030E002C0220F331F87
:101250009A95E2F73C68382BCF70C695C69580E228
:10126000C89FE0011124C22BD32B99C09E0123708B
:1012700033278C2F86958695C115D34508F064C019
:10128000C1E0D0E002C0CC0FDD1F2A95E2F720E2DA
:10129000829FC0011124C82BD92BDC6880C0C115E6
:1012A00029E5D207A0F4C11588E5D80708F060C089
:1012B000C11596E5D90708F070C08C2F0E94670A07
:1012C0008F71C82FD0E0DC2FCC27D06268C0C11549
:1012D0002AE5D20708F451C0CE01905681159042FC
:1012E00008F05BC08D2F8F710E94670ADD27D062E6
:1012F0008F71D82B54C0C55AD0E0CD5BDE4FC8816A
:10130000D0E0D0644CC0C85AD0E0CC0FDD1FCB5E1B
:10131000DE4F0990D881C02DD46441C00E94B3082B
:10132000EC013DC0CE019927D3FF03C0EC01D86C7E
:1013300036C0EC01D06C33C0DF70D06A30C0DC2F17
:10134000CC27C16FD06A2BC0C1E0D0E002C0CC0F67
:10135000DD1F2A95E2F720E2829FC0011124C82BED
:10136000D92BDA681CC0DC2FCC27C46FD06A17C019
:10137000DC2FCC27C06FD06A12C08C2F8F700E94D8
:10138000670A94E0D695C7959A95E1F7CF70D0E0BB
:10139000DC2FCC27D069C82B02C0C0E0D0E0CE0142
:1013A000DF91CF9108958238910569F1B0F48133CE
:1013B000910509F46DC048F48932910509F463C0C0
:1013C0008A32910509F469C008958533910509F4BD
:1013D00055C089339105B9F00895833E910569F1AF
:1013E00038F4803E9105B1F0823E910509F10895EF
:1013F000863E9105A9F1873E9105B9F1843E91059C
:1014000009F064C023C020915E0220FD4FC021FD81
:101410004DC0089580915E0280FD44C080915F02BE
:1014200080FF44C080915E0284FD42C083EE4DC0C7
:1014300080915E0282FF38C0F5CF80915E0282FD0E
:1014400033C080915F0280FD31C0ECCF80915F029C
:1014500081FF32C080915E0284FD2AC087EE35C0D4
:1014600080915E0283FF26C0F5CF80915E0283FDEE
:1014700021C080915F0281FD1FC0ECCF80915E0290
:1014800085FD1CC01DC080915E0285FD19C016C07F
:1014900080915E0286FD16C017C080915E0286FDB7
:1014A00013C010C089E311C082EE0FC080EE0DC0E2
:1014B00080E00BC086EE09C084EE07C089E205C05B
:1014C00085E303C08AE201C081E390E00895909132
:1014D0005E0292FF0DC0282F2871283019F4877FF3
:1014E000846006C0282F2471243011F48B7F88601B
:1014F00093FF0DC0282F2871283119F4877E84614D
:1015000006C0282F2471243111F48B7E886120912C
:101510005F0220FF0DC0382F3871383019F4877FF3
:10152000816006C0382F3171313011F48E7F8860B0
:1015300021FF0DC0282F2871283119F4877E816181
:1015400006C0282F2171213111F48E7E886194FD0F
:10155000877E0895E82FF0E0EE0FFF1FEE5AFD4F53
:10156000808191810895CF92DF92EF92FF920F9345
:101570001F93CF93DF938FE093E00E94010782E5F2
:10158000E82E82E0F82EC0E0D0E09AE0C92E93E089
:10159000D92E01E013E0DF93CF93DF92CF920E9428
:1015A0009A0787E093E00E940107F70181919191EA
:1015B0007F010E9479089F938F931F930F930E943E
:1015C0009A078FEF92E00E94010721968DB79EB790
:1015D00008960FB6F8949EBF0FBE8DBFC430D105DC
:1015E000D1F6DF91CF911F910F91FF90EF90DF9097
:1015F000CF90089580EA8A95F1F7089500C0089584
:101600000C94FA0A08950C94020B0C94030B0C949E
:10161000020B0C94070BF894E82FE295EF70F0E0C2
:1016200031A1282F2F7081E090E001C0880F2A950A
:10163000EAF7982F9095932391A392A1892B82A3E7
:10164000789408950F931F93CF93DF9382E90E94BC
:101650000B0B83E90E940B0B81E90E940B0B80E9C5
:101660000E940B0BC6E4D1E002E511E089910E94D3
:101670000B0B0C171D07D1F710924B0210924A0268
:10168000109253021092520210924D0210924C028C
:10169000109255021092540210924F0210924E0274
:1016A000109257021092560210925102109250025C
:1016B000109259021092580284E00E94F80BDF91B8
:1016C000CF911F910F910C94F3077F928F929F926D
:1016D000AF92BF92CF92DF92EF92FF920F931F9340
:1016E000CF93DF930AE412E082E5E82E81E0F82E42
:1016F000C0E0D0E0712CAA24A394B12C4701F701DB
:101700008081F894E82FE295EF70F0E021A18F70CE
:10171000A50102C0440F551F8A95E2F7CA01922F16
:10172000982B91A392A18095892382A378940E94FB
:10173000FE0AE6E4F1E020E030E0C12CD12C41913A
:10174000A42FA295AF70B0E090968C9190E04F706E
:1017500002C0959587954A95E2F780FD08C0C501BE
:10176000022E02C0880F991F0A94E2F702C080E09F
:1017700090E0C82AD92A2F5F3F4F2C303105F9F667
:101780005FEFE51AF50AF40180810E940B0BC3306C
:10179000D10511F00E94000BF80180819181C816DB
:1017A000D90621F0D182C08281E001C080E0782A90
:1017B00021960E5F1F4FC430D10509F09FCF272D12
:1017C00044E062E572E08AE492E00E94F90B0E9434
:1017D000FD07872DDF91CF911F910F91FF90EF9023
:1017E000DF90CF90BF90AF909F908F907F900895A3
:1017F0000895FF920F931F93CF93DF93F82E092F35
:10180000162FD72FC42F222349F081E08093A40103
:101810000E944D249093A3018093A2018091A40182
:101820008823D9F08091A2019091A3010E946524A0
:10183000069798F0EF2DF02FA12FBD2F80E090E0BC
:101840004C2F50E08417950734F4219131912D935A
:101850003D930196F7CF1092A401DF91CF911F9194
:101860000F91FF90089586E295E00E9401071F9274
:1018700081E08F931F9285E08F9388ED94E09F9392
:101880008F930E949A070F900F900F900F900F90D8
:101890000F9008958330E9F128F4813061F08230AF
:1018A00009F10895853009F462C008F449C0863012
:1018B00009F474C0089580910701262F30E0280FA5
:1018C000311D2F3F310524F4680F6093070103C0D9
:1018D0008FEF80930701809107011F928F9381E121
:1018E00094E072C080910601262F30E0280F311D50
:1018F0002F3F310524F4680F6093060103C08FEF7A
:1019000080930601809106011F928F938FEF93E0E1
:101910005BC080910501262F30E0280F311D2F3F3D
:10192000310524F4680F6093050103C08FEF8093A5
:101930000501809105011F928F938CEE93E044C0C6
:1019400080910401262F30E0280F311D2F3F3105F3
:1019500024F4680F6093040103C08FEF80930401A7
:10196000809104011F928F9387ED93E02DC08091A9
:101970000101262F30E0280F311D2F3F310524F4BF
:10198000680F6093010103C08FEF80930101809184
:1019900001011F928F938EEB93E016C0809100019E
:1019A000262F30E0280F311D2F3F310524F4680F1A
:1019B0006093000103C08FEF8093000180910001CC
:1019C0001F928F9383EA93E09F938F930E949A07CD
:1019D0000F900F900F900F900895833081F128F4AD
:1019E000813059F08230D1F00895853009F449C032
:1019F000B8F1863009F456C0089580910701681740
:101A000020F4861B8093070102C010920701809189
:101A100007011F928F9384E993E054C080910601DF
:101A2000681720F4861B8093060102C010920601FD
:101A3000809106011F928F9382E893E043C08091CA
:101A40000501681720F4861B8093050102C01092DF
:101A50000501809105011F928F938FE693E032C0BC
:101A600080910401681720F4861B8093040102C052
:101A700010920401809104011F928F938AE593E0F4
:101A800021C080910101681720F4861B8093010119
:101A900002C010920101809101011F928F9381E495
:101AA00093E010C080910001681720F4861B80939A
:101AB000000102C010920001809100011F928F93DB
:101AC00086E293E09F938F930E949A070F900F9066
:101AD0000F900F900895CF93C82F1F928F938BE292
:101AE00096E09F938F930E949A0781E090E0A0E098
:101AF000B0E0BC01CD0104C0660F771F881F991F9D
:101B0000CA95D2F70E943D200F900F900F900F9032
:101B1000CF910C94471CCF93DF938B3109F4EAC12A
:101B200008F08BC18B3009F4AEC108F065C1863076
:101B300009F4ACC120F4853009F4BAC15DC2873024
:101B400009F4BDC1883009F057C282E39BE00E94CE
:101B5000010783E89AE00E9401070E94D9221F92A0
:101B60008F9380E89AE09F938F930E949A078EE765
:101B70009AE00E9401070E94D522C82F8BE69AE0C6
:101B80000E9401071F92CF9386E69AE09F938F935E
:101B90000E949A0784E69AE00E9401078AE59AE08B
:101BA0000E9401078C2F81701F928F9387E59AE026
:101BB0009F938F930E949A0785E59AE00E94010700
:101BC0008BE49AE00E940107C1FB882780F91F92ED
:101BD0008F9388E49AE09F938F930E949A0786E4FC
:101BE0009AE00E9401078AE39AE00E940107C2FB83
:101BF000882780F91F928F9387E39AE09F938F93B2
:101C00000E949A0785E39AE00E9401078CE29AE01D
:101C10000E940107C3FBCC27C0F91F92CF9389E232
:101C20009AE09F938F930E949A0787E29AE00E941E
:101C300001070E94DD22EC0183E19AE00E94010786
:101C4000DF93CF938EE09AE09F938F930E949A0741
:101C50008CE09AE00E94010783EF99E00E9401075F
:101C60008C2F81701F928F9380EF99E09F938F93B9
:101C70000E949A078DB79EB780960FB6F8949EBFC4
:101C80000FBE8DBF8EEE99E00E94010787ED99E0AF
:101C90000E940107C1FB882780F91F928F9384ED72
:101CA00099E09F938F930E949A0782ED99E00E949A
:101CB000010780EC99E00E9401078D2F81701F922F
:101CC0008F938DEB99E09F938F930E949A078BEBF4
:101CD00099E00E94010789EA99E00E940107D695E0
:101CE000D1701F92DF9386EA99E09F938F930E94B1
:101CF0009A0784EA99E00E94010782E999E00E942C
:101D00000107C2FB882780F91F928F938FE899E023
:101D10009F938F930E949A078DE899E00E94010794
:101D20008BE799E00E940107C3FB882780F91F9287
:101D30008F9388E799E09F938F930E949A0786E795
:101D400099E00E9401078CE699E00E940107C4FB1C
:101D5000882780F91F928F9389E699E09F938F934C
:101D60000E949A0787E699E00E94010785E599E0BD
:101D70000E940107C5FB882780F91F928F9382E597
:101D800099E09F938F930E949A0780E599E00E94C3
:101D9000010784E399E00E940107C6FB882780F9C8
:101DA0001F928F9381E399E09F938F930E949A07EC
:101DB0008DB79EB780960FB6F8949EBF0FBE8DBFAD
:101DC0008FE299E00E94010787E299E00E940107F3
:101DD000C7FBCC27C0F91F92CF9384E299E09F9371
:101DE0008F930E949A0782E299E00E9401070F9068
:101DF0000F900F900F9045C0803109F4A5C020F4DA
:101E00008E3009F48BC0F8C0863109F4B8C089312E
:101E100009F0F2C089E497E00E94010781E197E0B0
:101E20000E9401078AEF96E00E94010784EC96E089
:101E30000E94010789E996E084C08A32E1F060F4EB
:101E4000873209F4D5C028F48E3108F4D5C08D51FD
:101E5000D0C0893269F1D0C0833448F48A3308F0A5
:101E6000C5C0853309F4C4C0883369F0C5C0833464
:101E700009F4BEC0C1C081E29BE00E9401070E943C
:101E80007123C1E0BEC08FE797E05BC080913B0249
:101E9000817F8E7F80933B0288E597E00E94010757
:101EA0008DE19BE00E94010781E08093A601E9CFCC
:101EB00081E09BE00E9401070E940008E2CF809130
:101EC0003B02C82FC095C170C0FB80F980933B02D4
:101ED000CC2329F085EF9AE00E94010792C088EE9A
:101EE0009AE00E94010780913B02897F877F80935F
:101EF0003B02C7CF90913B0291FBCC27C0F981E018
:101F0000C827892FC0FB81F980933B02CC2319F0AD
:101F10008BED9AE029C08DEC9AE013C090913B02C2
:101F200092FBCC27C0F981E0C827892FC0FB82F93A
:101F300080933B02CC2319F08EEB9AE015C08EEA19
:101F40009AE00E9401079DCF90913B0293FBCC2722
:101F5000C0F981E0C827892FC0FB83F980933B0239
:101F6000CC2351F082EA9AE00E94010780913B0263
:101F7000816080933B0245C085E99AE0E2CF8BE81F
:101F800096E00E9401070E949B161F928F9381E7A3
:101F900096E09F938F930E949A07809114011F925D
:101FA0008F938AE596E09F938F930E949A07809182
:101FB00049021F928F9387E496E09F938F930E942C
:101FC0009A070E9459249F938F937F936F9380E386
:101FD00096E09F938F930E949A078DB79EB7429683
:101FE0000FB6F8949EBF0FBE8DBF4BCF895301C073
:101FF00080E00E946B0D45CF83E99AE00E940107C3
:10200000C0E08C2FDF91CF91089580E008950C946B
:1020100005108E518A3030F4E82FF0E0EA5AFE4F76
:102020008081089580E00895CF93C82F8091A60104
:10203000813059F020F0823009F445C039C10E9446
:102040001322823209F036C104C00E941322823268
:1020500061F48C2F0E940710811104C08C2F0E9404
:102060008B0D2FC081E090E02CC08C2F0E940510BA
:10207000811126C0C431E1F070F4CB3081F0C03161
:10208000D1F40E94330C83E296E00E94010782E0C3
:102090008093A60115C0C93259F0C83361F488E5B0
:1020A00097E00E94010787E296E00E94010708C0BE
:1020B0001092A60101C181E296E00E940107FCC0D6
:1020C00081E08170FBC0C43228F5CE3108F0C1C078
:1020D000CB30A1F1D0F4C73009F0D0C08EE18093AD
:1020E000070182E3809306018AE08093050184E181
:1020F0008093040188E08093010188E280930001CD
:1021000087EC94E00E940107BCC0C33149F1C4319F
:10211000C1F0B4C0CB3409F4A6C028F4C93289F0A8
:10212000C83361F0ABC0C13509F49BC0C23509F4B6
:1021300096C0CE3409F0A2C06AE09BC00E94330C66
:10214000A0C08091A501882319F01092A50199C023
:1021500084ED94E00E94010781E08093A601AEC067
:102160008EEA94E00E9401078CE994E00E94010746
:10217000809107011F928F9389E994E09F938F9339
:102180000E949A0787E994E00E94010785E894E09D
:102190000E940107809106011F928F9382E894E0CC
:1021A0009F938F930E949A0780E894E00E94010712
:1021B00081E794E00E940107809105011F928F93AF
:1021C0008EE694E09F938F930E949A078CE694E0AA
:1021D0000E9401078BE594E00E94010780910401B1
:1021E0001F928F9388E594E09F938F930E949A07A4
:1021F00086E594E00E94010781E494E00E940107D3
:10220000809101011F928F938EE394E09F938F93AF
:102210000E949A078CE394E00E94010785E294E013
:102220000E940107809100011F928F9382E294E047
:102230009F938F930E949A0780E294E00E94010787
:102240008DB79EB748960FB6F8949EBF0FBE8DBF50
:1022500018C08C2F0E9409108093A50112C061E064
:1022600003C061E006C06AE08091A5010E944A0CAB
:1022700008C08091A5010E94ED0C03C085EC94E09C
:1022800013C08091A501882369F01F928F938FEB73
:1022900094E09F938F930E949A070F900F900F9056
:1022A0000F9004C08CEB94E00E94010781E006C00F
:1022B0001092A60180E002C080E003CFCF91089584
:1022C0008091AD0180FF0BC06091050185E0689FA2
:1022D000B001112475956795759567952BC081FFA1
:1022E00009C06091050185E0689FB00111247595D2
:1022F000679520C082FF07C06091050185E0689F57
:10230000B001112417C09091AC019923D1F06091D4
:102310000401961788F72091050185E0289F900118
:102320001124929FA001939F500D112470E0CA01C7
:102330000E94702C6038710540F46115710519F424
:1023400006C065E070E0862F08958FE7089581E06C
:1023500008958091AD0180FF08C06091010170E097
:10236000759567957595679521C081FF06C0609149
:10237000010170E07595679519C082FF04C06091F6
:10238000010170E010C09091AB01992399F0609128
:1023900000019617A0F780910101899FC0011124C7
:1023A00070E00E94702C6038710540F46115710571
:1023B00019F406C061E070E0862F08958FE7089554
:1023C00081E008958D3E21F40E946011819504C042
:1023D0008E3E29F40E9460118093B10108958F3ED2
:1023E00021F40E946011819504C0803F29F40E946D
:1023F00060118093B0010895893F19F40E94A911DA
:1024000005C08A3F31F40E94A91181958093B201E1
:1024100008958B3F21F40E94A911819504C08C3F3F
:1024200029F40E94A9118093B30108959FE0980FA9
:10243000983078F421E030E0A90102C0440F551F24
:102440009A95E2F7CA019091AF01892B8093AF0171
:1024500008958D3F21F48091AD0181600BC08E3FC6
:1024600021F48091AD01826005C08F3F29F48091F5
:10247000AD0184608093AD0108958D3E39F4909153
:10248000B10197FF35C01092B10159C08E3E29F4B9
:102490009091B1011916BCF32BC09091B0018F3E01
:1024A00029F497FF25C01092B00149C0803F19F46C
:1024B0001916CCF31DC09091B201893F29F4191669
:1024C000BCF41092B2013BC08A3F19F497FF10C0D0
:1024D000F8CF8B3F39F49091B30197FF09C0109268
:1024E000B3012DC08C3F21F49091B3011916BCF3B8
:1024F0009FE0980F983080F421E030E0A90102C0FD
:10250000440F551F9A95E2F7CA0180959091AF014B
:1025100089238093AF0113C08D3F21F48091AD01D9
:102520008E7F0BC08E3F21F48091AD018D7F05C061
:102530008F3F29F48091AD018B7F8093AD01809115
:10254000B001811106C08091B101811102C01092C9
:10255000AC018091B201811106C08091B30181115B
:1025600002C01092AB01089580913B0283FF7EC0B0
:1025700084E69BE00E9401078091AF011F928F9338
:102580008FE59BE09F938F930E949A078DE59BE0D8
:102590000E9401078091B001282F082E000C330BF8
:1025A0003F938F938AE59BE09F938F930E949A07B6
:1025B00088E59BE00E9401078091B101282F082E39
:1025C000000C330B3F938F9385E59BE09F938F9394
:1025D0000E949A0783E59BE00E9401078091B20167
:1025E000282F082E000C330B3F938F9380E59BE040
:1025F0009F938F930E949A078EE49BE00E940107AD
:102600008091B301282F082E000C330B3F938F933A
:102610008BE49BE09F938F930E949A0788E49BE052
:102620000E9401078091AC011F928F9385E49BE08B
:102630009F938F930E949A0783E49BE00E94010777
:102640008091AD011F928F9380E49BE09F938F93C5
:102650000E949A078DE39BE00E9401078DB79EB709
:102660004C960FB6F8949EBF0FBE8DBF0E944D24AE
:102670002091B001211104C02091B101222321F049
:102680009093AA018093A9012091B201211104C065
:102690002091B301222321F09093A8018093A701F8
:1026A0008EEA91E00C94F016EF92FF920F931F9335
:1026B000CF93DF9300D000D000D0CDB7DEB786E057
:1026C000EEEAF1E0DE01119601900D928A95E1F7B4
:1026D000E090B001F090B1010091B2011091B3010E
:1026E0001092B0011092B1011092B2011092B30198
:1026F000E11003C0FF2009F45DC08091A901909111
:10270000AA010E946524AC019091AC01992339F093
:102710002091060130E02417350758F04BC0209176
:1027200007018AE0289F900111242417350718F02B
:1027300041C09F3F19F09F5F9093AC01EE2061F084
:102740000E9460111E1414F09FEF01C091E0989F49
:10275000902D11249093B001FF2061F00E94601130
:102760001F1414F09FEF01C091E0989F902D112449
:102770009093B1013091B0013323E1F02091B10188
:102780002223C1F045EB3403C0011124992319F031
:102790009093B00103C081E08093B00135EB230337
:1027A000C0011124992319F09093B10103C081E075
:1027B0008093B101011103C0112309F45DC0809120
:1027C000A7019091A8010E946524AC019091AB01F2
:1027D000992339F02091020130E02417350758F091
:1027E0004BC0209103018AE0289F900111242417F7
:1027F000350718F041C09F3F19F09F5F9093AB01E0
:10280000002361F00E94A911101614F09FEF01C07F
:1028100091E0989F902D11249093B201112361F0C3
:102820000E94A911111614F09FEF01C091E0989F2A
:10283000902D11249093B3013091B2013323E1F034
:102840002091B3012223C1F045EB3403C0011124D0
:10285000992319F09093B20103C081E08093B201F3
:1028600035EB2303C0011124992319F09093B30190
:1028700003C081E08093B3018091B00181110BC04E
:102880008091B101811107C08091B201811103C013
:102890008091B30181110E94B412EB82FC820D83FE
:1028A0001E8386E0FE013196AEEAB1E001900D9202
:1028B0008A95E1F726960FB6F894DEBF0FBECDBF1E
:1028C000DF91CF911F910F91FF90EF900895EEEA65
:1028D000F1E086E0DF011D928A95E9F71092AC01E4
:1028E0001092AB011092AD0108950F931F93CF93F7
:1028F000DF93C42FD22FFC0182818823C9F040933B
:10290000B6010E944D249093B5018093B40180E2FA
:102910008C0F883008F057C0C77081E001C0880F65
:10292000CA95EAF7DF91CF911F910F910C94BA19D4
:102930008091B601481330C08091B4019091B501E7
:102940000E946524883C910538F510E21D0FCD17D3
:10295000B9F080E28C0F883040F4C77081E001C08C
:10296000880FCA95EAF70E94C119183028F581E04E
:102970009D2F977001C0880F9A95EAF70E94BA19A7
:10298000802F0E94B1191830F0F4D77081E001C097
:10299000880FDA95EAF70AC080E28C0F883098F445
:1029A000C77081E001C0880FCA95EAF7DF91CF9127
:1029B0001F910F910C94C119802FDF91CF911F911E
:1029C0000F910C94B119DF91CF911F910F91089540
:1029D0000F939C01CB01243F4CE5340731F188F47F
:1029E000293DFCE53F07D9F02A3D4CE5340779F154
:1029F000283D3C45A9F506E221EE41EE68ED7CE577
:102A00002BC0263FFCE53F07E1F0A8F0273F3C45FF
:102A100039F507E225EE46EE67EF7CE51DC007E2DB
:102A200025EE45EE69ED7CE517C006E221EE40EEAD
:102A300064EF7CE511C007E225EE44EE65EF7CE52E
:102A40000BC006E221EE42EE66EF7CE505C008E22F
:102A500021E045EE6AED7CE50E94751480E008C037
:102A6000FC018281882319F01092B60101C081E037
:102A70000F910895CF93DF93EC01FB0182818823AE
:102A800009F41FC1C230FCE5DF0708F41BC1C631E1
:102A90009CE5D90738F09E012B5F3C452930310574
:102AA00008F010C10E94DD2290935F0280935E02C5
:102AB000C031ECE5DE0709F4C3C008F041C0C830FE
:102AC0008CE5D80709F49AC0F0F4C430ECE5DE07D1
:102AD00009F487C068F4C2308CE5D80709F477C0E0
:102AE000C330DC4509F0E3C080915E02826076C0AD
:102AF000C630ECE5DE0709F46EC008F07BC08091BB
:102B00005E0288606BC0CC308CE5D80709F485C0C4
:102B100068F4CA30ECE5DE0709F474C008F079C047
:102B20000E94471C80915E02806858C0CE308CE5C0
:102B3000D80709F476C008F07FC080915E028BC090
:102B4000CC3FECE5DE0709F44FC018F5C3318CE546
:102B5000D80709F47DC078F4C131ECE5DE0709F44B
:102B600073C0C231DC4509F0A2C00E94471C8091AD
:102B70005E028F7733C0C5318CE5D80709F472C087
:102B800008F486C0CB3FDC4509F091C080915F021C
:102B90003EC0C115FDE5DF0709F45FC058F4CE3F24
:102BA0009CE5D90709F444C008F43FC080915F0256
:102BB00082602DC0C230FDE5DF0709F475C008F45E
:102BC0005DC0C330DD4509F072C080E06EC0809109
:102BD0005E02816003C080915E02806180935E022C
:102BE00066C080915E0211C080915F028260809316
:102BF0005F025DC080915E028062F0CF80915E02D4
:102C00008064ECCF80915E0288608460E7CF816051
:102C1000EECF80915E028E7FE1CF80915E028D7F4C
:102C2000DDCF80915E02877FD9CF80915F0218C08F
:102C300080915F028D7FDBCF80915E028F7ECECF51
:102C400080915E028F7DCACF80915E028F7BC6CF5E
:102C500080915E02877F8B7FC1CF80915F028D7FE5
:102C60008E7FC5CF80915E0282FB222720F991E002
:102C7000922790FB82F990FB83F9B0CF80915F029D
:102C8000982F909591708E7F892B90FB81F9AFCF13
:102C90000E94471C80915E0287FB222720F991E069
:102CA000922790FB87F99ACF81E00E94732380914D
:102CB0005E0290915F020E94EE220E94471C80E01B
:102CC00001C081E0DF91CF910895CF93DF938631EA
:102CD0009C4541F5EB010E941322982F8A81209197
:102CE000080130910901882379F09A7A81E009F48A
:102CF00080E08093B701911102C069E201C065E3F1
:102D0000C9010E94BA230AC08091B701811102C093
:102D100069E201C065E3C9010E94BC230E946122EF
:102D200080E001C081E0DF91CF9108959093BD01D3
:102D30008093BC010895E091BC01F091BD013097F2
:102D400021F00190F081E02D099480E00895EF9248
:102D5000FF920F931F93CF93DF93E091BC01F0910B
:102D6000BD013097B1F18C010280F381E02D09950E
:102D700080913B0282FF2DC080FF04C08FE89BE062
:102D80000E940107E80118E089E8E82E8BE0F82EA0
:102D900080913B0280FF0BC088811F928F93FF922E
:102DA000EF920E949A070F900F900F900F90115082
:102DB00021961111EDCF80913B0280FF0AC087E878
:102DC0009BE0DF91CF911F910F91FF90EF900C94BA
:102DD0000107DF91CF911F910F91FF90EF90089520
:102DE000E091BC01F091BD01309739F022E0DC01A7
:102DF0002C930480F581E02D099408952091BA0167
:102E00003091BB012817390771F09093BB01809373
:102E1000BA01E091BC01F091BD01309721F006802C
:102E2000F781E02D099408952091B8013091B901FE
:102E30002817390771F09093B9018093B801E09198
:102E4000BC01F091BD01309721F00084F185E02DA7
:102E5000099408950E9459246093CB017093CC018A
:102E60008093CD019093CE016093C7017093C80108
:102E70008093C9019093CA01089585B7806885BF82
:102E800085B7806885BF089581E008950C94441744
:102E900008950C9448170C9448170C944B170C94F5
:102EA00048170C944F170C9448170E943D1783EA5B
:102EB00096E20E94AB240E9453170C9451170E9473
:102EC00044240E94220B0E94C6240C944D17CF93D9
:102ED000C82F80913B0282FF1EC080FF04C088EA99
:102EE0009BE00E94010780913B0280FF0CC01F9273
:102EF000CF9383EA9BE09F938F930E949A070F9052
:102F00000F900F900F9080913B0280FF04C081EAE8
:102F10009BE00E9401078C2FCF910C9493086F9235
:102F20007F928F929F92AF92BF92CF92DF92EF9259
:102F3000FF920F931F93CF93DF93CDB7DEB72A97FE
:102F40000FB6F894DEBF0FBECDBF0E9449170E9496
:102F500048170E94650B81110E942A173FEB832EB0
:102F600031E0932E00E010E0C02E802F0E94AA0ACC
:102F70005C01F401619071904F016826792661141B
:102F80007104B1F40F5F1F4F0430110569F78FEF23
:102F900089838A831B820E944D248160782F9D83C0
:102FA0008C8349815A816B818D810E9449183AC076
:102FB00080913B0281FD0E94B30AD12CEE24E39460
:102FC000F12CC3018E219F21892B29F10E944617E4
:102FD0008823A9F0DE82CF82AE20BF2081E0AB281B
:102FE00009F480E088870E944D248160782F9A87B9
:102FF00089874E815F8168858A850E944918000F04
:10300000111FF801E154FE4F80819181E826F926D5
:10301000F182E08207C0D394EE0CFF1CFCE0DF12CB
:10302000D0CFB0CF0E9454130E949B169091BE0146
:103030008917D1F00E949B168093BE012A960FB685
:10304000F894DEBF0FBECDBFDF91CF911F910F91DE
:10305000FF90EF90DF90CF90BF90AF909F908F90B8
:103060007F906F900C9467172A960FB6F894DEBF86
:103070000FBECDBFDF91CF911F910F91FF90EF90C9
:10308000DF90CF90BF90AF909F908F907F906F9088
:103090000895DF92EF92FF920F931F93CF93DF93E8
:1030A000CDB7DEB72B970FB6F894DEBF0FBECDBFFE
:1030B000F42E052F162FE72ED82E61110E943322F1
:1030C000FE01319686E0DF011D928A95E9F77E2D9B
:1030D0004F2D502F612F8D2D9E810E94001F2B960A
:1030E0000FB6F894DEBF0FBECDBFDF91CF911F9119
:1030F0000F91FF90EF90DF900895FC018081918106
:103100000E94D4210895CF93882309F4A9C0C82F21
:103110008238C1F40E949B1681FDA2C069E38091B0
:103120000801909109010E94BA230E9461222FEFA9
:1031300081EE94E0215080409040E1F700C0000013
:1031400069E319C0833801F50E949B1680FD88C091
:1031500063E580910801909109010E94BA230E94C1
:1031600061222FEF81EE94E0215080409040E1F702
:1031700000C0000063E580910801909109010E9460
:10318000BC23CF910C9461228438C1F40E949B1619
:1031900082FD66C067E480910801909109010E9458
:1031A000BA230E9461222FEF81EE94E021508040EB
:1031B0009040E1F700C0000067E4DDCF8CEF8C0F9A
:1031C000813AF8F48C2F0E941410811149C06C2FA1
:1031D00080910801909109010E948423882349F07D
:1031E0006C2F80910801909109010E94BC230E94DC
:1031F00061226C2F80910801909109010E94BA23ED
:10320000C0CF80E28C0F883048F4C77081E001C0E5
:10321000880FCA95EAF70E941622B3CFEBE5EC0FB0
:10322000E33040F4F0E0E257FE4F808190E0CF9130
:103230000C94FE16E8E5EC0FE73150F4F0E0EE0FE9
:10324000FF1FE05AFE4F80819181CF910C9414179B
:10325000CD3E30F08C2F0E94E211CF910C94B4122D
:10326000CF910895882309F464C0823879F40E94CC
:103270009B1681FF5EC069E380910801909109016E
:103280000E94BA230E94612269E310C08338B1F41E
:103290000E949B1680FF4DC063E5809108019091CC
:1032A00009010E94BA230E94612263E5809108010E
:1032B000909109010E94BC230C946122843879F416
:1032C0000E949B1682FF35C067E4809108019091AF
:1032D00009010E94BA230E94612267E4E7CF9CEFB4
:1032E000980F913A10F4682FE1CF90E2980F983040
:1032F00050F4877091E001C0990F8A95EAF7892F01
:103300000E941C22D9CF9BE5980F933020F480E0D7
:1033100090E00C94FE1698E5980F973120F480E029
:1033200090E00C9414178D3E20F00E943D120C94F6
:10333000B41208951F93CF93DF93182FEB010E94CF
:103340008318209741F08FE99FE00197F1F700C0C3
:1033500000002197F6CF812FDF91CF911F910C9420
:103360003219893319F060E070E002C060E570E066
:103370000C949A19882321F00E9416220C94612241
:103380000895882321F00E941C220C946122089544
:10339000CF92DF92EF92FF920F931F93CF93DF9321
:1033A0007C01062FC72FFC01D281158112951F7059
:1033B0000E940C22882399F0DD2389F08C2F807FD6
:1033C000803421F080E2800F883048F082E00E9453
:1033D000AB220E940C2291E0D82ED92601C0D12C1C
:1033E000CC2EC2948FE0C8228C2D90E0FC01EA5ACA
:1033F000FF4F0C94842C8C2F807FCF70882311F08A
:10340000C295C07FDD2399F0CC2309F48DC180E201
:10341000800F883010F0011104C08C2F0E941622FA
:1034200003C08C2F0E9426220E9461227DC1802F22
:103430000E943219CC2309F49CC180E2800F8830AD
:1034400010F0011104C08C2F0E941C2203C08C2F8D
:103450000E942C220E9461228CC18C2F807FCF7011
:10346000803211F0C295C07F002319F00130C9F0FD
:1034700022C0DD2371F0112341F0113031F40E949C
:1034800046228C2B0E944E2274C10E9446228C2B15
:103490001DC0112319F0113009F46BC10E9457228D
:1034A00025C0DD2321F0163008F063C10EC01530B1
:1034B00008F05FC11BC0DD2361F0112331F0F7017B
:1034C000858180FF31C18F7085838C2F0E94BA194E
:1034D00050C1112359F0093309F037C1FFEF27EE2E
:1034E00083E0F15020408040E1F72DC18C2F0E94F5
:1034F000C1193FC18C2F86958695837019F0813054
:1035000061F037C1DD2321F0802F9C2F937002C022
:1035100080E090E00E94FE1634C1DD2321F0802F70
:103520009C2F937002C080E090E00E94141729C184
:10353000802FDD2319F00E94E21102C00E943D128B
:103540000E94B4121EC18C2F837009F045C0D111A6
:1035500014C1402F429546954770440F440F602F89
:103560006F70862F90E0A0E0B0E0042E04C0880FBA
:10357000991FAA1FBB1F0A94D2F704FF10C00FE0C7
:1035800010E020E030E004C0000F111F221F331FA5
:103590004A95D2F7009510952095309503C000E02C
:1035A00010E09801C695C695C370BC01CD01602B93
:1035B000712B822B932BC23049F058F4C13019F093
:1035C0000E945120DAC00E943F20D7C00E94632091
:1035D000D4C00E943D20D1C0DD2319F08C2F817012
:1035E00001C08695882309F4C8C0402F42954695AE
:1035F0004770440F440F602F6F70862F90E0A0E05B
:10360000B0E0042E04C0880F991FAA1FBB1F0A94A4
:10361000D2F704FF10C00FE010E020E030E004C05B
:10362000000F111F221F331F4A95D2F700951095E6
:103630002095309503C000E010E09801C695C6952E
:10364000C370BC01CD01602B712B822B932BC23038
:1036500049F058F4C13019F00E9416218EC00E9422
:1036600004218BC00E94282188C00E94772085C039
:10367000CF70DD2339F08C2F0E949D20802F0E9477
:10368000BA197BC0802F0E94C1198C2F0E94BE20C6
:1036900074C0023F01F128F4003F41F0013FA1F066
:1036A0003FC0033FF9F0043F39F13AC0DD2341F058
:1036B000153008F05EC08C2F8F710E94E32059C036
:1036C000163008F056C0F7CFDD2339F08C2F8F71FC
:1036D0000E949D204EC0DD23C9F38C2F8F710E9464
:1036E000BE2047C0DD2329F08C2F8F710E948820D7
:1036F00040C00E9483203DC0DD2349F0CF718C2F54
:103700000E949D2063E08C2F0E94962232C081E0AF
:103710000E94AB22123068F182E00E94AB2229C0E5
:10372000DD2331F0112391F2802F0E94831821C0F4
:10373000112399F2093349F49FEFE7EEF3E091503A
:10374000E040F040E1F700C00000802F0E943219F5
:1037500010C04C2F4F70602FC7010E949C080E9420
:10376000AE1F0FC04C2F4F70602FC7010E949F08E3
:1037700008C088EF8C0D843020F40E949B160E94B4
:103780009308DD20C9F00E94082280FD15C0F701D2
:1037900012820E9402220E949D20C7010E94FD1BEE
:1037A0000E940222DF91CF911F910F91FF90EF9025
:1037B000DF90CF900C94BE20DF91CF911F910F919D
:1037C000FF90EF90DF90CF9008950F931F93CF93CA
:1037D000DF93EC01688179818A810E94DF218C016D
:1037E0000E943A210E942B20B801CE010E94C819E4
:1037F000DF91CF911F910F910895CF93DF93EC014B
:10380000988189812B813C81232B31F08F3F31F4CA
:1038100081E09F3F19F403C081E001C080E080FD9A
:1038200019C0CE010E940F0881110CC00E940C2209
:10383000882381F08A81882369F082E0DF91CF912B
:103840000C94AB22CE010E94E51BCE01DF91CF91FB
:103850000C94E807DF91CF91089580E090E00E94FA
:10386000FE1680E090E00E9414170E9433220E940E
:1038700043220E9461220E9467140C94B41280912A
:103880000801909109010E94BE230C942D1C0E94F6
:1038900023220C943F1CE92FE295EF704E2F50E04D
:1038A000FA013297EE30F105B0F4EA59FF4F0C946B
:1038B000842C803F91F018F4883E68F40EC0843F59
:1038C00051F40BC0883E48F0813F29F406C093FBB9
:1038D000882780F9089580E0089581E008950E9486
:1038E000D4210E944B1C0895CF93DF9300D000D0C9
:1038F0001F92CDB7DEB70F900F900F900F900F90E3
:10390000DF91CF910895CF93DF9300D000D000D006
:10391000CDB7DEB726960FB6F894DEBF0FBECDBF8B
:10392000DF91CF9108951F93CF93DF93C091D00182
:1039300016E08091D101C81799F0D0E01C9FF001EA
:103940001D9FF00D1124EE52FE4F40815181628186
:103950007381848195810E94831C2196C770E9CF71
:10396000DF91CF911F91089540910202509103027F
:103970006091040270910502809106029091070205
:103980000C94831C0F931F93CF93DF9380910702B6
:1039900082958F7009F05DC080910402882309F43C
:1039A00058C08091D0011091D101609102027091B4
:1039B0000302C0910502D091060291E06F3F09F029
:1039C00090E0292F06E0811709F443C0209721F0E9
:1039D0007F3F21F030E003C031E001C0322F90E0A2
:1039E00030FD34C0089FF001099FF00D1124DF0164
:1039F000AE52BE4F11963C911197371327C03C91A0
:103A0000361324C012963C91129731111FC01396A1
:103A10004D915C9114974C1B5D0B483C5105B0F4E3
:103A2000809107028F70806180930702E952FE4FF8
:103A300080818F708061808382E092E00E94FD1B14
:103A4000DF91CF911F910F910C94931C0196877079
:103A5000BACFDF91CF911F910F9108959F92AF92AE
:103A6000BF92CF92DF92EF92FF920F931F93CF936B
:103A7000DF93CDB7DEB761970FB6F894DEBF0FBE08
:103A8000CDBF8C0185E0F801DE011D9601900D92FD
:103A90008A95E1F7F80140815181E280909102021C
:103AA0006091030220910502309106022115310533
:103AB00031F06F3F31F481E09F3F19F403C081E0A2
:103AC00001C080E0F82FF1709F2E80FD46C1F80103
:103AD000A380B48082E0C82E82E0D82EF090040249
:103AE000F501E21BF30BFF2009F4DFC08091070210
:103AF000E83CF10508F09BC0282F207F09F052C058
:103B0000561313C0491311C0FE2CE1100EC08F7064
:103B10008061809307020E94B41CC6010E94FD1BB5
:103B200080910702F801858358C1AB2831F05F3FCF
:103B300031F481E04F3F19F403C081E001C080E01F
:103B400080FD03C081E08E2502C080E090E0F82F68
:103B5000F170FF2E80FF1CC08091D0012091D10117
:103B600036E0821709F417C190E0389FF001399FC1
:103B7000F00D1124EE52FE4F6181561306C0608194
:103B8000461303C06281E61203C001968770E9CF35
:103B9000FE2CEE2009F421C1809107028160809300
:103BA00007025AC0561306C0491304C0E11002C0F0
:103BB000F8019FC04D875E878D859E850E946F1C92
:103BC000882379F1EE2069F120910702822F8295F6
:103BD0008F7090E0029774F080910202909103023E
:103BE00098878F831986BB86AA862C87CE01079675
:103BF0000E94FD1B86E0F801A2E0B2E001900D9268
:103C00008A95E1F70E94C21C0E94B41C0DC0561791
:103C100029F14D875E878D859E850E946F1C8111DD
:103C20002CC0C8010E94FD1BFF24F394D6C0282F8E
:103C3000207F69F77A2DB98AA88A6E2D89890E941A
:103C4000741C82E092E00E94FD1B86E0F601119256
:103C50008A95E9F70E94B41CF12CBFC04913D9CF53
:103C6000E110D7CFF8018583C8010E94FD1B86E0D3
:103C7000F60111928A95E9F7B0C0EE2091F22091F9
:103C80000702822F82958F7090E002970CF4B2CFDA
:103C900080910202909103029A8389831B82BD82E4
:103CA000AC822E83CE010196A3CFE83CF10508F04B
:103CB00047C0FE2CEE2009F4B4CF561330C0491390
:103CC0002EC02091070220FD21C0822F82958F7087
:103CD000482F50E041155105C9F0F80125834F30B8
:103CE000510541F08F5F982F9295907F822F8F70B2
:103CF000892B8583C8010E94FD1B86E0F801A2E0A4
:103D0000B2E001900D928A95E1F742C086E0F80199
:103D1000A2E0B2E001900D928A95E1F75EC04D8776
:103D20005E878D859E850E946F1C811163CF809177
:103D30000702816080930702C8010E94FD1B4DC0ED
:103D40007A2DB98AA88A6E2D89890E94741C86E012
:103D5000F60111928A95E9F71BC0EE2009F461CFB4
:103D60004D875E878D859E850E946F1CF82E882367
:103D700009F457CF86E0F801A2E0B2E001900D927D
:103D80008A95E1F782E092E00E947D180E94C21CB1
:103D90000E94B41C22C04D875E878D859E850E943F
:103DA000D421292F22952F70223028F49F7039F0CA
:103DB000811105C00BC0243028F49F7049F4805E47
:103DC000883020F0C8010E94FD1B9F2CF92C05C0F3
:103DD000F8019581907F99F7F9CF8F2D61960FB6F5
:103DE000F894DEBF0FBECDBFDF91CF911F910F9131
:103DF000FF90EF90DF90CF90BF90AF909F9008958D
:103E00001F93CF93DF93CDB7DEB72C970FB6F894FF
:103E1000DEBF0FBECDBF4F83588769877A878B87F8
:103E20009C87CE0107960E942E1D8823D1F09F818A
:103E300088852A853B85232B31F08F3F31F481E043
:103E40009F3F19F403C081E001C080E080FD47C0BE
:103E50004F81588569857A858B859C850E94831C56
:103E60003EC086E0FE013796DE01119601900D926C
:103E70008A95E1F7FF81E8856A857B856115710583
:103E800031F0EF3F31F481E0FF3F19F403C081E0EE
:103E900001C080E080FD23C02091D10130E0C90144
:103EA0000196877099274091D00150E084179507BB
:103EB000F1F1F983EA837D836C8396E0929FD001D0
:103EC000939FB00D1124AE52BE4FFE01319601906A
:103ED0000D929A95E1F78093D1010E94931C16E010
:103EE0008091D0019091D101891771F1189FC00183
:103EF00011248E529E4F0E942E1D882329F1E0919D
:103F0000D0011E9FF0011124EE52FE4F40815181DD
:103F100062817381848195810E94831C8091D0018C
:103F200090E00196877099278093D001D9CF0E94A5
:103F3000471C1092D1011092D001E2E0F2E086E03D
:103F4000DF011D928A95E9F72C960FB6F894DEBF33
:103F50000FBECDBFDF91CF911F910895EF92FF92D9
:103F60000F931F93CF93DF938C01892B09F46CC0BF
:103F7000F12CEE24E394E8012196F8018491843732
:103F800040F4843008F051C0813081F0823019F162
:103F90005BC0853709F444C0A8F19CE7980F9037BF
:103FA00008F052C08F770E94321941C00E5F1F4F38
:103FB000FE01849190E2980F983050F48770FE2DA6
:103FC00001C0FF0F8A95EAF78F2F0E94362214C096
:103FD0000E9483182DC00E5F1F4FFE01849190E256
:103FE000980F983060F48770FE2D01C0FF0F8A95FE
:103FF000EAF78F2F0E943C220E94612219C00E9482
:10400000321916C00E5F1F4FFE01C491CC2381F000
:104010008FE99FE00197F1F700C00000C150F6CF93
:104020000E5F1F4FFE01F49003C00E9483188E01A3
:104030008F2D882309F49FCFEFE9FFE03197F1F747
:1040400000C000008150F5CFDF91CF911F910F91FB
:10405000FF90EF900895089508950C942C200C94EF
:104060002D200E942F2060932A0270932B028093B0
:104070002C0290932D020C942D1C0C9431200F9344
:104080001F9300912A0210912B0220912C02309153
:104090002D02602B712B822B932B1F910F910C946F
:1040A00031200F931F9300912A0210912B0220912F
:1040B0002C0230912D0260237123822393231F91C0
:1040C0000F910C9431200F931F9300912A021091AD
:1040D0002B0220912C0230912D026027712782271C
:1040E00093271F910F910C9431200C942C200E9447
:1040F0007520609326027093270280932802909384
:1041000029020C942D1C60E070E0CB010C94772008
:104110000F931F9341E050E060E070E08A019B0143
:1041200004C0000F111F221F331F8A95D2F7C90147
:10413000B8011F910F910C9477200F931F9341E0CA
:1041400050E060E070E004C0440F551F661F771F09
:104150008A95D2F78091260290912702A091280299
:10416000B09129028A019B01082B192B2A2B3B2B8A
:10417000C901B8011F910F910C9477200F931F93E1
:1041800041E050E060E070E004C0440F551F661F3E
:10419000771F8A95D2F740955095609570958091DC
:1041A000260290912702A0912802B09129028A014B
:1041B0009B01082319232A233B23C901B8011F911E
:1041C0000F910C9477200F931F9341E050E060E033
:1041D00070E004C0440F551F661F771F8A95D2F701
:1041E0008091260290912702A0912802B091290285
:1041F0008A019B01082719272A273B27C901B801F3
:104200001F910F910C9477200F931F93009126021A
:10421000109127022091280230912902602B712BE6
:10422000822B932B1F910F910C9477200F931F9348
:104230000091260210912702209128023091290234
:1042400060237123822393231F910F910C94772075
:104250000F931F93009126021091270220912802AC
:104260003091290260277127822793271F910F9190
:104270000C94772008952CE0929F800D1124E82F54
:10428000E695E695E695877051E001C0550F8A9551
:10429000EAF785E0E89FF0011124E85FFD4F20E098
:1042A00030E070E04081CB01022E02C096958795E8
:1042B0000A94E2F78170819584278523842781936E
:1042C0002F5F3F4F2530310569F708952CE0929F0D
:1042D000800D1124682F669566956695982F9770C6
:1042E00085E0689FB001112440E050E080E0FB01D0
:1042F000E40FF51FE85FFD4F208130E0092E02C07A
:10430000369527950A94E2F721703327042E01C0D1
:10431000220F0A94EAF7822B4F5F5F4F4530510519
:1043200031F70895BF92CF92DF92EF92FF920F93F1
:104330001F93CF93DF938C01C0902602D090270269
:10434000E0902802F090290280912A0290912B029D
:10435000A0912C02B0912D02C82AD92AEA2AFB2A60
:10436000CFE1D0E0D701C6010C2E04C0B695A795C9
:10437000979587950A94D2F780FD04C0219790F70E
:10438000B12C07C0BC2EB8018C2F0E94BB0801972E
:10439000A9F38B2DDF91CF911F910F91FF90EF909B
:1043A000DF90CF90BF900895CF93DF93EC010E94F0
:1043B0009221BE010E94BB08DF91CF9108951F9307
:1043C000CF93DF93EB019091CF01992321F0CB01A3
:1043D0000E94D42113C0882349F0CB010E9492216E
:1043E000182F682FCE010E943B2104C0CB010E94F0
:1043F0006621182FBE01812F0E94BB08DF91CF914B
:104400001F91089580912E02859585958595089533
:1044100080912E028770089590912E02977081E00E
:1044200009F480E0089580913A02089590913A024B
:10443000892B80933A020895809590913A028923BE
:1044400080933A02089510923A02089590913902A9
:10445000892B8093390208958095909139028923A0
:10446000809339020895109239020895909138028C
:10447000892B809338020895809590913802892382
:1044800080933802089510923802089580912F0287
:10449000089508950C9449220C944A2290912F0279
:1044A000981721F080932F020C944C22089580914C
:1044B0002F02882329F010922F0280E00C944C22C6
:1044C0000895E0910801F091090180913A028083FA
:1044D000E0910801F0910901908180913902892BC6
:1044E0008083E0910801F091090190818091380268
:1044F000892B808380912F02882381F0E09108012D
:10450000F09109019081892B80838091080190911D
:1045100009010E94782381110E945722809108018D
:10452000909109010C94A7160C94492298E0899F58
:1045300090011124262B20932E020E949D20809111
:104540002E028595859585950C94942210922E02C5
:1045500080E00C94942220912E02809582238093F7
:104560002E02982F977079F430E0482F082E000C17
:10457000550B2417350739F08595859585950E944B
:10458000BE200C94A62208956FEF7FEF80E090E0AC
:104590000C94CA2C80E090E00E94A62C21E08B3E77
:1045A0009E4F09F020E0822F089582E090E00C9465
:1045B0009E2C83E090E00C949E2CCF9384E090E0BE
:1045C0000E949E2CC82F81E290E00E949E2C2C2FEE
:1045D00030E0A901582BCA01CF910895CF93C92F7C
:1045E000682F84E090E00E94AC2C6C2F81E290E078
:1045F000CF910C94AC2CAB01BC018FE090E00C94FB
:10460000BE2CAB01BC0183E190E00C94BE2C60E0B9
:1046100070E0CB010C94012360E070E0CB010E94BC
:10462000FB220C9407236BEE7EEF80E090E00E946B
:10463000CA2C60E082E090E00E94AC2C60E083E055
:1046400090E00E94AC2C10922A0210922B02109241
:104650002C0210922D0260E084E090E00E94AC2CCD
:1046600060E081E290E00E94AC2C60E085E090E0A8
:104670000E94AC2C60E086E090E00E94AC2C6FEFD2
:1046800087E090E00E94AC2C40E050E0BA0188E066
:1046900090E00E94BE2C60E08DE090E00E94AC2C87
:1046A00040E050E0BA0188E190E00E94BE2C60E05A
:1046B00087E190E00E94AC2C40E050E0BA018CE130
:1046C00090E00E94BE2C60E080E290E00E94AC2C62
:1046D00040E050E0BA0188E190E00E94BE2C0C94CA
:1046E0000C230C941323682F8EE090E00C94AC2CD8
:1046F000FC01329697E080E0915029F0219122232D
:10470000D9F38F5FF9CF0895662349F0FC01329603
:1047100008962191621729F0E817F907D1F780E090
:10472000089581E008959C01FC0132969FEF80E09E
:104730004191461789F09F3F19F4411101C0982F0C
:104740008F5F8630A9F79F3F39F0F901E90FF11D1E
:1047500097FDFA956283089508959C012A5F3F4F63
:10476000FC014281461301C0128201968217930711
:10477000B9F708950C9493230C94AD23029626E088
:10478000FC0111922A95E9F7089508950C94C52328
:104790000C94C523CF930E94C8230E94650B0E94EE
:1047A000C623C0E08C2F0E94AA0A892B29F4CF5F70
:1047B000C430C1F780E001C081E0CF9108950C942E
:1047C000C5230C94DF2380916402843049F10E9458
:1047D000E12380E00E94930810923C0220E488E1EB
:1047E00090E00FB6F894A895809360000FBE2093D8
:1047F000600083B7817F846083BF83B7816083BF9C
:104800007894889583B78E7F83BF0FB6F894A89568
:1048100080916000886180936000109260000FBEFC
:1048200008950C94C5230E94471C0E949B160E9469
:1048300093080C9411241F920F920FB60F9211241B
:104840008F939F93AF93BF9380913C02811113C0CC
:1048500080915A0290915B02A0915C02B0915D023E
:104860004196A11DB11D80935A0290935B02A093C3
:104870005C02B0935D02BF91AF919F918F910F90B9
:104880000FBE0F901F90189582E084BD93E095BDF8
:104890009AEF97BD80936E0008952FB7F89480919A
:1048A0005A0290915B02A0915C02B0915D022FBF11
:1048B00008952FB7F89460915A0270915B0280912D
:1048C0005C0290915D022FBF08959C014FB7F89450
:1048D00080915A0290915B02A0915C02B0915D02BE
:1048E0004FBF821B930B089578941F920F920FB6BF
:1048F0000F9211248F939F93AF93BF9380915A028D
:1049000090915B02A0915C02B0915D020196A11DA5
:10491000B11D80935A0290935B02A0935C02B09306
:104920005D02BF91AF919F918F910F900FBE0F903D
:104930001F90189587E797E79093010880930008E8
:104940009AE088E10FB6F894A895809360000FBEB6
:1049500090936000FFCF9093A1018093A0010895F0
:104960000C94C4220E94650B8FE39CE90197F1F738
:1049700000C000000E94650B80E00E94AA0A80FF30
:1049800004C00E94B0240C949A2408950E94CA2264
:10499000811102C00E9471230E94D52280933B02A4
:1049A0000E94DD2290935F0280935E020E94D922D2
:1049B000682F70E080E090E00E943D206091260228
:1049C0007091270280912802909129020C94752001
:1049D000809148020895CF93DF9300D01F92CDB706
:1049E000DEB790916402943019F589837B836A83E2
:1049F00082E08093E9008FEF9091E800815095FD6F
:104A000006C095ED9A95F1F700008111F5CF8091E0
:104A1000E80085FF0DC040E050E063E070E0CE01AB
:104A200001960E94C7278091E8008E778093E80066
:104A30000F900F900F90DF91CF910895BC0184E00B
:104A40000C94EB24BC0183E00C94EB2422E0209333
:104A5000E9002FEF3091E800215035FD06C035ED1B
:104A60003A95F1F700002111F5CF2091E80025FFDC
:104A70000BC040E050E066E070E00E94C7278091E4
:104A8000E8008E778093E8000895CF93DF9321E0CC
:104A90002093E9002FEF3091E800215035FD06C04A
:104AA00035ED3A95F1F700002111F5CF2091E8009E
:104AB00025FF14C0EC0140E050E068E070E00E9487
:104AC000C7278091E8008E778093E80088E0FE0198
:104AD000A0E4B2E001900D928A95E1F7DF91CF91C9
:104AE000089580EE9BE00E9401078091630281118E
:104AF00009C00E9458290E94B5298091E200846073
:104B00008093E20008958CED9BE00E9401071092D3
:104B10006302089588ED9BE00C94010784ED9BE00F
:104B20000C94010780ED9BE00C94010720913E025C
:104B30002F5F822F62E30E94642C992319F0209347
:104B40003E02089510923E0280913F02882371F147
:104B500080916402843041F58091E9008F7020914A
:104B6000EC00922F917020FD90E8892B93E09093B8
:104B7000E9009091EB0090FF14C09091EE0097FF38
:104B800010C09091E80095FF03C01092F100F9CF9A
:104B90009091E80090FF05C09091E8009E77909377
:104BA000E8008F708093E90010923F02089542E080
:104BB00061EC81E00E94D12842E261EC82E00E9437
:104BC000D12842E261EC83E00C94D1288091660206
:104BD000833009F460C030F4813071F0823009F420
:104BE00099C008958A3009F485C08B3009F46BC0F0
:104BF000893009F0A7C020C080916502813A09F090
:104C0000A1C08091E800877F8093E80080916902CD
:104C100090916A02892B21F468E080E492E003C05D
:104C200060E080E090E070E00E9412288091E8004F
:104C30008B778093E800089580916502813209F0B6
:104C400081C08091690290916A02029708F07AC04F
:104C50008091E800877F8093E8008091E80082FDE2
:104C600005C0809164028111F8CF6CC02091F300DF
:104C70008091F20090E0922B029729F48091F1004C
:104C80008B7F813021F48091F100809348028091E4
:104C9000E8008B7753C080916502813A09F052C0D9
:104CA0008091690290916A02892B09F04BC0809132
:104CB000E800877F8093E8008091E80080FFFCCFC8
:104CC0008091140136C0809165028132D9F58091BE
:104CD000690290916A02892BA9F58091E800877F8B
:104CE0008093E8000E940629809167028093140156
:104CF0000C94471C80916502813221F58091E80077
:104D0000877F8093E8000E94062980916802809343
:104D10004902089580916502813AA1F48091E800EA
:104D2000877F8093E8008091E80080FFFCCF80912E
:104D300049028093F1008091E8008E778093E8002B
:104D40000C94062908959FB7F89410923F029FBFD4
:104D500090916402943009F057C09091E9009F70DF
:104D60003091EC00232F217030FD20E8922B23E0BE
:104D70002093E9002091EB0020FF43C02091EE003A
:104D800027FF3FC020913D02222321F02091E8001F
:104D900025FF37C010923D0226E03091E80035FD36
:104DA00015C030916402343061F53091EB0035FD6F
:104DB00028C0215021F481E080933D0222C0EFE918
:104DC000FFE03197F1F700C00000E7CF8093F100DA
:104DD0008091E80085FD0AC08091E80080FFFCCF4B
:104DE0008091E8008E778093E80006C08FB7F89432
:104DF00021E020933F028FBF9F709093E90080E0F5
:104E000008959F709093E9008FEF089584B7877F8E
:104E100084BF0FB6F894A895809160008861809354
:104E20006000109260000FBE90E080E80FB6F8942A
:104E300080936100909361000FBE0E9455170E94FD
:104E400058290E94B5298091E20084608093E20095
:104E500078940E94492C0E945F178AE091E00E949A
:104E600096168FEB9BE00E940107809164028530CB
:104E7000C9F48BEB9BE00E940107809164028530AE
:104E800079F40E94E323809162028823B1F30E94A7
:104E9000CA23882391F30E94B1270E94471CEDCFBB
:104EA0000E9413240E948F170E9449170E944817DE
:104EB000DCCF0C945B27292F332723303105C9F031
:104EC00060F42130310581F02230310509F041C014
:104ED0008BE590E02EE03CE040C021323105E1F06E
:104EE0002232310531F135C082E190E029E63CE023
:104EF00034C099278130910549F028F0029749F58F
:104F0000E4EEFBE005C0EAE0FCE002C0E0EFFBE01D
:104F1000849190E09F0121C063307105D0F4660F49
:104F2000771FFB01E656FE4F2081318189E090E03A
:104F300014C06330710568F4FB01EE0FFF1FEC56DF
:104F4000FE4F20813181FB01EF56FE4F808190E0C2
:104F500004C080E090E020E030E0FA01318320835B
:104F6000089580E189BD82E189BD09B400FEFDCFCD
:104F70008091D8008F7D8093D8008091E00082607E
:104F80008093E0008091E00081FDFCCF0895CF92F6
:104F9000DF92EF92FF920F931F93CF93DF93EC0179
:104FA0008B017A010E942529811133C0E114F1049B
:104FB00039F0F70180819181081B190BC80FD91FA7
:104FC000C12CD12C0115110519F18091E80085FD46
:104FD00016C08091E8008E778093E800E114F10418
:104FE00049F0F70180819181C80ED91ED182C0821B
:104FF00085E00FC00E942529882321F30AC08991EA
:105000008093F10001501109FFEFCF1ADF0ADACFC8
:1050100080E0DF91CF911F910F91FF90EF90DF9093
:10502000CF90089520916B0230916C0226173707BC
:1050300048F06115710539F42091E8002E7720932E
:10504000E80001C0B901FC0120E06115710579F1AA
:10505000809164028823F1F18530F1F18091E800BC
:1050600083FD3CC08091E80082FD2EC08091E80065
:1050700080FFEBCF2091F3008091F20090E0922B23
:105080006115710551F08830910538F42191209314
:10509000F100615071090196F3CF21E0089709F002
:1050A00020E08091E8008E778093E800CECF211138
:1050B000CFCF0AC080916402882361F0853061F00F
:1050C0008091E80083FD0AC08091E80082FFF2CF62
:1050D00080E0089582E0089583E0089581E00895D6
:1050E00020916B0230916C022617370748F061154A
:1050F000710539F42091E8002E772093E80001C073
:10510000B901FC0120E06115710591F18091640203
:10511000882309F440C0853009F43FC08091E8003D
:1051200083FD3DC08091E80082FD2FC08091E800A2
:1051300080FFE9CF2091F3008091F20090E0922B64
:105140006115710559F08830910540F42491209340
:10515000F1003196615071090196F2CF21E0089774
:1051600009F020E08091E8008E778093E800CBCFB3
:105170002111CCCF0AC080916402882361F0853070
:1051800061F08091E80083FD0AC08091E80082FF11
:10519000F2CF80E0089582E0089583E0089581E0F1
:1051A0000895982F973068F59093E900981739F093
:1051B0007091EC002091ED005091F00003C0242F7D
:1051C000762F50E021FD02C09F5FECCF3091EB00C5
:1051D0003E7F3093EB003091ED003D7F3093ED004A
:1051E0003091EB0031603093EB007093EC00209332
:1051F000ED005093F0002091EE0027FDE5CF80E018
:1052000008958F708093E90081E008958091650290
:1052100087FF11C08091E80082FD05C08091640283
:105220008111F8CF11C08091E8008B770BC080917D
:105230006402882349F08091E80080FFF8CF8091D4
:10524000E8008E778093E80008952091E400309183
:10525000E50095E64091EC00842F817040FF23C06B
:105260008091E80080FD1DC080916402882399F040
:10527000853099F08091EB0085FD11C04091E400EC
:105280005091E5002417350729F3915011F09A0148
:10529000E1CF84E0089582E0089583E0089581E0FD
:1052A000089580E008954091E80042FFDDCF089521
:1052B0000E94C6290E94CE29E0EEF0E08081816044
:1052C0008083E8EDF0E080818F77808319BCA7EDC3
:1052D000B0E08C918E7F8C9380818F7E8083109242
:1052E000630208950F931F93CF93DF930E94C62903
:1052F0000E94CE29C8EDD0E088818F77888388818D
:105300008068888388818F7D888319BC10926402AD
:1053100010926002109262021092610200EE10E0A0
:10532000F80180818B7F808388818160888342E05F
:1053300060E080E00E94D128E1EEF0E080818E7F85
:105340008083E2EEF0E080818160808380818860EC
:105350008083F80180818E7F80838881806188834B
:10536000DF91CF911F910F910895E8EDF0E08081DA
:105370008F7E8083E7EDF0E080818160808384E030
:1053800082BF81E0809363020C947229E8EDF0E023
:1053900080818E7F80831092E20008951092DA005F
:1053A0001092E10008951F920F920FB60F921124F0
:1053B0002F933F934F935F936F937F938F939F931D
:1053C000AF93BF93EF93FF938091E10082FF0BC0F7
:1053D0008091E20082FF07C08091E1008B7F809383
:1053E000E1000E9496258091DA0080FF1FC0809125
:1053F000D80080FF1BC08091DA008E7F8093DA0096
:105400008091D90080FF0DC080E189BD82E189BD16
:1054100009B400FEFDCF81E0809364020E947125F3
:1054200005C019BC109264020E9483258091E1009E
:1054300080FF19C08091E20080FF15C08091E200DA
:105440008E7F8093E2008091E20080618093E20091
:105450008091D80080628093D80019BC85E0809349
:1054600064020E948E258091E10084FF30C080910B
:10547000E20084FF2CC080E189BD82E189BD09B4CE
:1054800000FEFDCF8091D8008F7D8093D800809161
:10549000E1008F7E8093E1008091E2008F7E809317
:1054A000E2008091E20081608093E20080916002DE
:1054B000882311F084E007C08091E30087FD02C0DB
:1054C00081E001C083E0809364020E949225809174
:1054D000E10083FF29C08091E20083FF25C0809115
:1054E000E100877F8093E10082E080936402109264
:1054F00060028091E1008E7F8093E1008091E20064
:105500008E7F8093E2008091E20080618093E200D0
:1055100042E060E080E00E94D1288091F000886045
:105520008093F0000E948A25FF91EF91BF91AF9187
:105530009F918F917F916F915F914F913F912F91AB
:105540000F900FBE0F901F9018951F920F920FB6DD
:105550000F9211242F933F934F935F936F937F93F9
:105560008F939F93AF93BF93CF93DF93EF93FF936B
:10557000C091E900CF708091EC00D82FD17080FDF0
:10558000D0E81092E9008091F000877F8093F000CE
:1055900078940E94E92A1092E9008091F0008860D6
:1055A0008093F000CD2BCF70C093E900FF91EF9175
:1055B000DF91CF91BF91AF919F918F917F916F912B
:1055C0005F914F913F912F910F900FBE0F901F90C1
:1055D00018951F93CF93DF93CDB7DEB7AA970FB679
:1055E000F894DEBF0FBECDBFE5E6F2E08091F1009A
:1055F000819322E0ED36F207C9F70E94E6258091FB
:10560000E80083FF2EC18091650290916602492FC8
:1056100050E04A30510508F024C1FA01EC58FF4F20
:105620000C94842C803821F0823809F01AC108C00B
:105630008091610290916202992389F082600FC08B
:10564000809169028F70873008F00BC18093E90068
:105650008091EB0085FB882780F91092E9009091FA
:10566000E800977F9093E8008093F1001092F1009A
:10567000D1C0282F2D7F09F0F4C0882319F0823083
:1056800061F0EFC080916702813009F0EAC0933089
:1056900009F080E0809362022EC080916702811140
:1056A0002AC0809169028F702FEF280F263008F0F2
:1056B000D8C08093E9002091EB0020FF1CC09330FC
:1056C00021F48091EB00806214C09091EB00906116
:1056D0009093EB0021E030E0A90102C0440F551F78
:1056E0008A95E2F74093EA001092EA008091EB007D
:1056F00088608093EB001092E9008091E800877F3A
:105700008093E8000E940629ACC08111AAC01091C4
:1057100067021F778091E3008078812B8093E300FC
:105720008091E800877F8093E8000E94062980919D
:10573000E80080FFFCCF8091E30080688093E30065
:10574000111102C082E001C083E08093640289C02D
:105750008058823008F085C080916702909168027D
:105760008C3D53E0950779F583E08A838AE289834B
:105770004FB7F894DE01139620E03EE051E2E32FAC
:10578000F0E050935700E49120FF03C0E295EF70E2
:105790003F5FEF708E2F90E0EA3010F0C79601C0A7
:1057A000C0968D939D932F5F243149F74FBF809111
:1057B000E800877F8093E8006AE270E0CE010196FE
:1057C0000E94122816C06091690270916A02AE01AF
:1057D0004F5F5F4F0E945927BC01892B09F441C0DC
:1057E0009091E800977F9093E80089819A810E94C8
:1057F00070288091E8008B778093E80032C0803871
:1058000081F58091E800877F8093E80080916002B5
:105810008093F1008091E8008E7772CF811121C0D2
:10582000809167029091680299270297D4F4809141
:10583000E800877F8093E800809167028093600290
:105840000E94062980916002811106C08091E300C8
:1058500087FD02C081E001C084E0809364020E9461
:10586000D7258091E80083FF0AC08091E800877FF8
:105870008093E8008091EB0080628093EB00AA9611
:105880000FB6F894DEBF0FBECDBFDF91CF911F9151
:105890000895CF93809164028823A1F0C091E9001C
:1058A000CF709091EC00892F817090FD80E8C82B1B
:1058B0001092E9008091E80083FD0E94E92ACF70F0
:1058C000C093E900CF910895991B79E004C0991F16
:1058D000961708F0961B881F7A95C9F7809508954A
:1058E00097FB072E16F4009407D077FD09D00E948D
:1058F0008A2C07FC05D03EF4909581959F4F089522
:10590000709561957F4F0895EE0FFF1F0590F491FC
:10591000E02D0994AA1BBB1B51E107C0AA1FBB1FA6
:10592000A617B70710F0A61BB70B881F991F5A952B
:10593000A9F780959095BC01CD010895F999FECF06
:1059400092BD81BDF89A992780B50895A8E1B0E08D
:1059500042E050E00C94D22C262FF999FECF92BD54
:1059600081BDF89A019700B4021639F01FBA20BD24
:105970000FB6F894FA9AF99A0FBE08950396272F56
:105980000E94AD2C0E94AC2C252F0E94AD2C242F00
:105990000C94AD2C0196272F0E94AD2C0C94AC2CAE
:1059A000DC01CB01FC01F999FECF06C0F2BDE1BDDF
:1059B000F89A319600B40D9241505040B8F70895CE
:0459C000F894FFCF89
:1059C4002808641E140A321E3002E82445252625C0
:1059D40022251E2501E200E900EA00B500B600B761
:1059E40000CD008301CC008A01920194012102239D
:1059F4000224022502260227022A02B300B4006F01
:105A0400007000818283F4F5F6F731333236353491
:105A1400C6979293919001020304050607080900B2
:105A2400E200E900EA00B500B600B700CD0083014A
:105A3400CC008A019201940121022302240225024E
:105A4400260227022A02B300B4006F00700081828C
:105A540083407B22180D9D0C7B0C200C390C520CBE
:00000001FF
